{
  "_format": "hh-sol-artifact-1",
  "contractName": "MyEpicGame",
  "sourceName": "contracts/MyEpicGame.sol",
  "abi": [
    {
      "inputs": [
        {
          "internalType": "string[]",
          "name": "_characterNames",
          "type": "string[]"
        },
        {
          "internalType": "string[]",
          "name": "_characterImageURIs",
          "type": "string[]"
        },
        {
          "internalType": "uint256[]",
          "name": "_characterHP",
          "type": "uint256[]"
        },
        {
          "internalType": "uint256[]",
          "name": "_characterAttackDmg",
          "type": "uint256[]"
        },
        {
          "internalType": "string",
          "name": "_bossName",
          "type": "string"
        },
        {
          "internalType": "string",
          "name": "_bossImageURI",
          "type": "string"
        },
        {
          "internalType": "uint256",
          "name": "_bossHP",
          "type": "uint256"
        },
        {
          "internalType": "uint256",
          "name": "_bossAttackDmg",
          "type": "uint256"
        }
      ],
      "stateMutability": "nonpayable",
      "type": "constructor"
    },
    {
      "anonymous": false,
      "inputs": [
        {
          "indexed": true,
          "internalType": "address",
          "name": "owner",
          "type": "address"
        },
        {
          "indexed": true,
          "internalType": "address",
          "name": "approved",
          "type": "address"
        },
        {
          "indexed": true,
          "internalType": "uint256",
          "name": "tokenId",
          "type": "uint256"
        }
      ],
      "name": "Approval",
      "type": "event"
    },
    {
      "anonymous": false,
      "inputs": [
        {
          "indexed": true,
          "internalType": "address",
          "name": "owner",
          "type": "address"
        },
        {
          "indexed": true,
          "internalType": "address",
          "name": "operator",
          "type": "address"
        },
        {
          "indexed": false,
          "internalType": "bool",
          "name": "approved",
          "type": "bool"
        }
      ],
      "name": "ApprovalForAll",
      "type": "event"
    },
    {
      "anonymous": false,
      "inputs": [
        {
          "indexed": false,
          "internalType": "uint256",
          "name": "newBossHp",
          "type": "uint256"
        },
        {
          "indexed": false,
          "internalType": "uint256",
          "name": "newPlayerHp",
          "type": "uint256"
        }
      ],
      "name": "AttackCompleted",
      "type": "event"
    },
    {
      "anonymous": false,
      "inputs": [
        {
          "indexed": false,
          "internalType": "address",
          "name": "sender",
          "type": "address"
        },
        {
          "indexed": false,
          "internalType": "uint256",
          "name": "tokenId",
          "type": "uint256"
        },
        {
          "indexed": false,
          "internalType": "uint256",
          "name": "characterIndex",
          "type": "uint256"
        }
      ],
      "name": "CharacterNFTMinted",
      "type": "event"
    },
    {
      "anonymous": false,
      "inputs": [
        {
          "indexed": true,
          "internalType": "address",
          "name": "from",
          "type": "address"
        },
        {
          "indexed": true,
          "internalType": "address",
          "name": "to",
          "type": "address"
        },
        {
          "indexed": true,
          "internalType": "uint256",
          "name": "tokenId",
          "type": "uint256"
        }
      ],
      "name": "Transfer",
      "type": "event"
    },
    {
      "inputs": [
        {
          "internalType": "address",
          "name": "to",
          "type": "address"
        },
        {
          "internalType": "uint256",
          "name": "tokenId",
          "type": "uint256"
        }
      ],
      "name": "approve",
      "outputs": [],
      "stateMutability": "nonpayable",
      "type": "function"
    },
    {
      "inputs": [],
      "name": "attackBoss",
      "outputs": [],
      "stateMutability": "nonpayable",
      "type": "function"
    },
    {
      "inputs": [
        {
          "internalType": "address",
          "name": "owner",
          "type": "address"
        }
      ],
      "name": "balanceOf",
      "outputs": [
        {
          "internalType": "uint256",
          "name": "",
          "type": "uint256"
        }
      ],
      "stateMutability": "view",
      "type": "function"
    },
    {
      "inputs": [],
      "name": "bigBoss",
      "outputs": [
        {
          "internalType": "string",
          "name": "name",
          "type": "string"
        },
        {
          "internalType": "string",
          "name": "imageURI",
          "type": "string"
        },
        {
          "internalType": "uint256",
          "name": "hp",
          "type": "uint256"
        },
        {
          "internalType": "uint256",
          "name": "maxHp",
          "type": "uint256"
        },
        {
          "internalType": "uint256",
          "name": "attackDamage",
          "type": "uint256"
        }
      ],
      "stateMutability": "view",
      "type": "function"
    },
    {
      "inputs": [],
      "name": "checkIfUserHasNFT",
      "outputs": [
        {
          "components": [
            {
              "internalType": "uint256",
              "name": "characterIndex",
              "type": "uint256"
            },
            {
              "internalType": "string",
              "name": "name",
              "type": "string"
            },
            {
              "internalType": "string",
              "name": "imageURI",
              "type": "string"
            },
            {
              "internalType": "uint256",
              "name": "hp",
              "type": "uint256"
            },
            {
              "internalType": "uint256",
              "name": "maxHp",
              "type": "uint256"
            },
            {
              "internalType": "uint256",
              "name": "attackDamage",
              "type": "uint256"
            }
          ],
          "internalType": "struct MyEpicGame.CharacterAttributes",
          "name": "",
          "type": "tuple"
        }
      ],
      "stateMutability": "view",
      "type": "function"
    },
    {
      "inputs": [],
      "name": "getAllDefaultCharacters",
      "outputs": [
        {
          "components": [
            {
              "internalType": "uint256",
              "name": "characterIndex",
              "type": "uint256"
            },
            {
              "internalType": "string",
              "name": "name",
              "type": "string"
            },
            {
              "internalType": "string",
              "name": "imageURI",
              "type": "string"
            },
            {
              "internalType": "uint256",
              "name": "hp",
              "type": "uint256"
            },
            {
              "internalType": "uint256",
              "name": "maxHp",
              "type": "uint256"
            },
            {
              "internalType": "uint256",
              "name": "attackDamage",
              "type": "uint256"
            }
          ],
          "internalType": "struct MyEpicGame.CharacterAttributes[]",
          "name": "",
          "type": "tuple[]"
        }
      ],
      "stateMutability": "view",
      "type": "function"
    },
    {
      "inputs": [],
      "name": "getAllHeros",
      "outputs": [
        {
          "components": [
            {
              "internalType": "uint256",
              "name": "characterIndex",
              "type": "uint256"
            },
            {
              "internalType": "string",
              "name": "name",
              "type": "string"
            },
            {
              "internalType": "string",
              "name": "imageURI",
              "type": "string"
            },
            {
              "internalType": "uint256",
              "name": "hp",
              "type": "uint256"
            },
            {
              "internalType": "uint256",
              "name": "maxHp",
              "type": "uint256"
            },
            {
              "internalType": "uint256",
              "name": "attackDamage",
              "type": "uint256"
            }
          ],
          "internalType": "struct MyEpicGame.CharacterAttributes[]",
          "name": "",
          "type": "tuple[]"
        }
      ],
      "stateMutability": "view",
      "type": "function"
    },
    {
      "inputs": [
        {
          "internalType": "uint256",
          "name": "tokenId",
          "type": "uint256"
        }
      ],
      "name": "getApproved",
      "outputs": [
        {
          "internalType": "address",
          "name": "",
          "type": "address"
        }
      ],
      "stateMutability": "view",
      "type": "function"
    },
    {
      "inputs": [],
      "name": "getBigBoss",
      "outputs": [
        {
          "components": [
            {
              "internalType": "string",
              "name": "name",
              "type": "string"
            },
            {
              "internalType": "string",
              "name": "imageURI",
              "type": "string"
            },
            {
              "internalType": "uint256",
              "name": "hp",
              "type": "uint256"
            },
            {
              "internalType": "uint256",
              "name": "maxHp",
              "type": "uint256"
            },
            {
              "internalType": "uint256",
              "name": "attackDamage",
              "type": "uint256"
            }
          ],
          "internalType": "struct MyEpicGame.BigBoss",
          "name": "",
          "type": "tuple"
        }
      ],
      "stateMutability": "view",
      "type": "function"
    },
    {
      "inputs": [
        {
          "internalType": "address",
          "name": "owner",
          "type": "address"
        },
        {
          "internalType": "address",
          "name": "operator",
          "type": "address"
        }
      ],
      "name": "isApprovedForAll",
      "outputs": [
        {
          "internalType": "bool",
          "name": "",
          "type": "bool"
        }
      ],
      "stateMutability": "view",
      "type": "function"
    },
    {
      "inputs": [
        {
          "internalType": "uint256",
          "name": "_characterIndex",
          "type": "uint256"
        }
      ],
      "name": "mintCharacterNFT",
      "outputs": [],
      "stateMutability": "nonpayable",
      "type": "function"
    },
    {
      "inputs": [],
      "name": "name",
      "outputs": [
        {
          "internalType": "string",
          "name": "",
          "type": "string"
        }
      ],
      "stateMutability": "view",
      "type": "function"
    },
    {
      "inputs": [
        {
          "internalType": "uint256",
          "name": "",
          "type": "uint256"
        }
      ],
      "name": "nftHolderAttributes",
      "outputs": [
        {
          "internalType": "uint256",
          "name": "characterIndex",
          "type": "uint256"
        },
        {
          "internalType": "string",
          "name": "name",
          "type": "string"
        },
        {
          "internalType": "string",
          "name": "imageURI",
          "type": "string"
        },
        {
          "internalType": "uint256",
          "name": "hp",
          "type": "uint256"
        },
        {
          "internalType": "uint256",
          "name": "maxHp",
          "type": "uint256"
        },
        {
          "internalType": "uint256",
          "name": "attackDamage",
          "type": "uint256"
        }
      ],
      "stateMutability": "view",
      "type": "function"
    },
    {
      "inputs": [
        {
          "internalType": "address",
          "name": "",
          "type": "address"
        }
      ],
      "name": "nftHolders",
      "outputs": [
        {
          "internalType": "uint256",
          "name": "",
          "type": "uint256"
        }
      ],
      "stateMutability": "view",
      "type": "function"
    },
    {
      "inputs": [
        {
          "internalType": "uint256",
          "name": "tokenId",
          "type": "uint256"
        }
      ],
      "name": "ownerOf",
      "outputs": [
        {
          "internalType": "address",
          "name": "",
          "type": "address"
        }
      ],
      "stateMutability": "view",
      "type": "function"
    },
    {
      "inputs": [
        {
          "internalType": "address",
          "name": "from",
          "type": "address"
        },
        {
          "internalType": "address",
          "name": "to",
          "type": "address"
        },
        {
          "internalType": "uint256",
          "name": "tokenId",
          "type": "uint256"
        }
      ],
      "name": "safeTransferFrom",
      "outputs": [],
      "stateMutability": "nonpayable",
      "type": "function"
    },
    {
      "inputs": [
        {
          "internalType": "address",
          "name": "from",
          "type": "address"
        },
        {
          "internalType": "address",
          "name": "to",
          "type": "address"
        },
        {
          "internalType": "uint256",
          "name": "tokenId",
          "type": "uint256"
        },
        {
          "internalType": "bytes",
          "name": "_data",
          "type": "bytes"
        }
      ],
      "name": "safeTransferFrom",
      "outputs": [],
      "stateMutability": "nonpayable",
      "type": "function"
    },
    {
      "inputs": [
        {
          "internalType": "address",
          "name": "operator",
          "type": "address"
        },
        {
          "internalType": "bool",
          "name": "approved",
          "type": "bool"
        }
      ],
      "name": "setApprovalForAll",
      "outputs": [],
      "stateMutability": "nonpayable",
      "type": "function"
    },
    {
      "inputs": [
        {
          "internalType": "bytes4",
          "name": "interfaceId",
          "type": "bytes4"
        }
      ],
      "name": "supportsInterface",
      "outputs": [
        {
          "internalType": "bool",
          "name": "",
          "type": "bool"
        }
      ],
      "stateMutability": "view",
      "type": "function"
    },
    {
      "inputs": [],
      "name": "symbol",
      "outputs": [
        {
          "internalType": "string",
          "name": "",
          "type": "string"
        }
      ],
      "stateMutability": "view",
      "type": "function"
    },
    {
      "inputs": [
        {
          "internalType": "uint256",
          "name": "_tokenId",
          "type": "uint256"
        }
      ],
      "name": "tokenURI",
      "outputs": [
        {
          "internalType": "string",
          "name": "",
          "type": "string"
        }
      ],
      "stateMutability": "view",
      "type": "function"
    },
    {
      "inputs": [
        {
          "internalType": "address",
          "name": "from",
          "type": "address"
        },
        {
          "internalType": "address",
          "name": "to",
          "type": "address"
        },
        {
          "internalType": "uint256",
          "name": "tokenId",
          "type": "uint256"
        }
      ],
      "name": "transferFrom",
      "outputs": [],
      "stateMutability": "nonpayable",
      "type": "function"
    }
  ],
  "bytecode": "0x60806040523480156200001157600080fd5b5060405162005cbc38038062005cbc833981810160405281019062000037919062000a85565b6040518060400160405280600981526020017f44414f2050756e6b7a00000000000000000000000000000000000000000000008152506040518060400160405280600581526020017f50554e4b5a0000000000000000000000000000000000000000000000000000008152508160009080519060200190620000bb929190620007ed565b508060019080519060200190620000d4929190620007ed565b5050506040518060a0016040528085815260200184815260200183815260200183815260200182815250600660008201518160000190805190602001906200011e929190620007ed565b5060208201518160010190805190602001906200013d929190620007ed565b50604082015181600201556060820151816003015560808201518160040155905050620002c06040518060600160405280602a815260200162005c92602a9139600660000180546200018f9062000e08565b80601f0160208091040260200160405190810160405280929190818152602001828054620001bd9062000e08565b80156200020e5780601f10620001e2576101008083540402835291602001916200020e565b820191906000526020600020905b815481529060010190602001808311620001f057829003601f168201915b5050505050600660020154600660010180546200022b9062000e08565b80601f0160208091040260200160405190810160405280929190818152602001828054620002599062000e08565b8015620002aa5780601f106200027e57610100808354040283529160200191620002aa565b820191906000526020600020905b8154815290600101906020018083116200028c57829003601f168201915b50505050506200070260201b620020f51760201c565b60005b8851811015620006dc57600c6040518060c001604052808381526020018b84815181106200031a577f4e487b7100000000000000000000000000000000000000000000000000000000600052603260045260246000fd5b602002602001015181526020018a848151811062000361577f4e487b7100000000000000000000000000000000000000000000000000000000600052603260045260246000fd5b60200260200101518152602001898481518110620003a8577f4e487b7100000000000000000000000000000000000000000000000000000000600052603260045260246000fd5b60200260200101518152602001898481518110620003ef577f4e487b7100000000000000000000000000000000000000000000000000000000600052603260045260246000fd5b6020026020010151815260200188848151811062000436577f4e487b7100000000000000000000000000000000000000000000000000000000600052603260045260246000fd5b6020026020010151815250908060018154018082558091505060019003906000526020600020906006020160009091909190915060008201518160000155602082015181600101908051906020019062000492929190620007ed565b506040820151816002019080519060200190620004b1929190620007ed565b50606082015181600301556080820151816004015560a0820151816005015550506000600c82815481106200050f577f4e487b7100000000000000000000000000000000000000000000000000000000600052603260045260246000fd5b90600052602060002090600602016040518060c001604052908160008201548152602001600182018054620005449062000e08565b80601f0160208091040260200160405190810160405280929190818152602001828054620005729062000e08565b8015620005c35780601f106200059757610100808354040283529160200191620005c3565b820191906000526020600020905b815481529060010190602001808311620005a557829003601f168201915b50505050508152602001600282018054620005de9062000e08565b80601f01602080910402602001604051908101604052809291908181526020018280546200060c9062000e08565b80156200065d5780601f1062000631576101008083540402835291602001916200065d565b820191906000526020600020905b8154815290600101906020018083116200063f57829003601f168201915b5050505050815260200160038201548152602001600482015481526020016005820154815250509050620006c460405180606001604052806025815260200162005c6d602591398260200151836060015184604001516200070260201b620020f51760201c565b50600181620006d4919062000d6b565b9050620002c3565b50620006f4600b620007ae60201b620021971760201c565b505050505050505062000f2c565b620007a8848484846040516024016200071f949392919062000c30565b6040516020818303038152906040527f8d142cdd000000000000000000000000000000000000000000000000000000007bffffffffffffffffffffffffffffffffffffffffffffffffffffffff19166020820180517bffffffffffffffffffffffffffffffffffffffffffffffffffffffff8381831617835250505050620007c460201b60201c565b50505050565b6001816000016000828254019250508190555050565b60008151905060006a636f6e736f6c652e6c6f679050602083016000808483855afa5050505050565b828054620007fb9062000e08565b90600052602060002090601f0160209004810192826200081f57600085556200086b565b82601f106200083a57805160ff19168380011785556200086b565b828001600101855582156200086b579182015b828111156200086a5782518255916020019190600101906200084d565b5b5090506200087a91906200087e565b5090565b5b80821115620008995760008160009055506001016200087f565b5090565b6000620008b4620008ae8462000cbb565b62000c92565b90508083825260208201905082856020860282011115620008d457600080fd5b60005b858110156200092357815167ffffffffffffffff811115620008f857600080fd5b80860162000907898262000a41565b85526020850194506020840193505050600181019050620008d7565b5050509392505050565b6000620009446200093e8462000cea565b62000c92565b905080838252602082019050828560208602820111156200096457600080fd5b60005b858110156200099857816200097d888262000a6e565b84526020840193506020830192505060018101905062000967565b5050509392505050565b6000620009b9620009b38462000d19565b62000c92565b905082815260208101848484011115620009d257600080fd5b620009df84828562000dd2565b509392505050565b600082601f830112620009f957600080fd5b815162000a0b8482602086016200089d565b91505092915050565b600082601f83011262000a2657600080fd5b815162000a388482602086016200092d565b91505092915050565b600082601f83011262000a5357600080fd5b815162000a65848260208601620009a2565b91505092915050565b60008151905062000a7f8162000f12565b92915050565b600080600080600080600080610100898b03121562000aa357600080fd5b600089015167ffffffffffffffff81111562000abe57600080fd5b62000acc8b828c01620009e7565b985050602089015167ffffffffffffffff81111562000aea57600080fd5b62000af88b828c01620009e7565b975050604089015167ffffffffffffffff81111562000b1657600080fd5b62000b248b828c0162000a14565b965050606089015167ffffffffffffffff81111562000b4257600080fd5b62000b508b828c0162000a14565b955050608089015167ffffffffffffffff81111562000b6e57600080fd5b62000b7c8b828c0162000a41565b94505060a089015167ffffffffffffffff81111562000b9a57600080fd5b62000ba88b828c0162000a41565b93505060c062000bbb8b828c0162000a6e565b92505060e062000bce8b828c0162000a6e565b9150509295985092959890939650565b600062000beb8262000d4f565b62000bf7818562000d5a565b935062000c0981856020860162000dd2565b62000c148162000f01565b840191505092915050565b62000c2a8162000dc8565b82525050565b6000608082019050818103600083015262000c4c818762000bde565b9050818103602083015262000c62818662000bde565b905062000c73604083018562000c1f565b818103606083015262000c87818462000bde565b905095945050505050565b600062000c9e62000cb1565b905062000cac828262000e3e565b919050565b6000604051905090565b600067ffffffffffffffff82111562000cd95762000cd862000ed2565b5b602082029050602081019050919050565b600067ffffffffffffffff82111562000d085762000d0762000ed2565b5b602082029050602081019050919050565b600067ffffffffffffffff82111562000d375762000d3662000ed2565b5b62000d428262000f01565b9050602081019050919050565b600081519050919050565b600082825260208201905092915050565b600062000d788262000dc8565b915062000d858362000dc8565b9250827fffffffffffffffffffffffffffffffffffffffffffffffffffffffffffffffff0382111562000dbd5762000dbc62000e74565b5b828201905092915050565b6000819050919050565b60005b8381101562000df257808201518184015260208101905062000dd5565b8381111562000e02576000848401525b50505050565b6000600282049050600182168062000e2157607f821691505b6020821081141562000e385762000e3762000ea3565b5b50919050565b62000e498262000f01565b810181811067ffffffffffffffff8211171562000e6b5762000e6a62000ed2565b5b80604052505050565b7f4e487b7100000000000000000000000000000000000000000000000000000000600052601160045260246000fd5b7f4e487b7100000000000000000000000000000000000000000000000000000000600052602260045260246000fd5b7f4e487b7100000000000000000000000000000000000000000000000000000000600052604160045260246000fd5b6000601f19601f8301169050919050565b62000f1d8162000dc8565b811462000f2957600080fd5b50565b614d318062000f3c6000396000f3fe608060405234801561001057600080fd5b50600436106101425760003560e01c806398da4c95116100b8578063b953084e1161007c578063b953084e14610392578063c87b56dd146103b0578063c8cf27f4146103e0578063d4f24c5b146103fe578063e985e9c514610408578063f8b81ef71461043857610142565b806398da4c95146102e5578063a22cb4651461031a578063a9c3267914610336578063ae49675a14610358578063b88d4fde1461037657610142565b806323b872dd1161010a57806323b872dd146101ff57806342842e0e1461021b5780636352211e1461023757806370a08231146102675780637df124a11461029757806395d89b41146102c757610142565b806301ffc9a7146101475780630665f9611461017757806306fdde0314610195578063081812fc146101b3578063095ea7b3146101e3575b600080fd5b610161600480360381019061015c9190613468565b610454565b60405161016e9190613ccd565b60405180910390f35b61017f610536565b60405161018c9190614066565b60405180910390f35b61019d610692565b6040516101aa9190613ce8565b60405180910390f35b6101cd60048036038101906101c891906134ba565b610724565b6040516101da9190613c0d565b60405180910390f35b6101fd60048036038101906101f8919061342c565b6107a9565b005b61021960048036038101906102149190613326565b6108c1565b005b61023560048036038101906102309190613326565b610921565b005b610251600480360381019061024c91906134ba565b610941565b60405161025e9190613c0d565b60405180910390f35b610281600480360381019061027c91906132c1565b6109f3565b60405161028e91906140aa565b60405180910390f35b6102b160048036038101906102ac91906132c1565b610aab565b6040516102be91906140aa565b60405180910390f35b6102cf610ac3565b6040516102dc9190613ce8565b60405180910390f35b6102ff60048036038101906102fa91906134ba565b610b55565b604051610311969594939291906140c5565b60405180910390f35b610334600480360381019061032f91906133f0565b610ca1565b005b61033e610e22565b60405161034f959493929190613db7565b60405180910390f35b610360610f56565b60405161036d9190613cab565b60405180910390f35b610390600480360381019061038b9190613375565b6111df565b005b61039a611241565b6040516103a79190613cab565b60405180910390f35b6103ca60048036038101906103c591906134ba565b6113ec565b6040516103d79190613ce8565b60405180910390f35b6103e8611607565b6040516103f59190614088565b60405180910390f35b6104066117df565b005b610422600480360381019061041d91906132ea565b611c6d565b60405161042f9190613ccd565b60405180910390f35b610452600480360381019061044d91906134ba565b611d01565b005b60007f80ac58cd000000000000000000000000000000000000000000000000000000007bffffffffffffffffffffffffffffffffffffffffffffffffffffffff1916827bffffffffffffffffffffffffffffffffffffffffffffffffffffffff1916148061051f57507f5b5e139f000000000000000000000000000000000000000000000000000000007bffffffffffffffffffffffffffffffffffffffffffffffffffffffff1916827bffffffffffffffffffffffffffffffffffffffffffffffffffffffff1916145b8061052f575061052e826121ad565b5b9050919050565b61053e6130e8565b60066040518060a001604052908160008201805461055b9061440b565b80601f01602080910402602001604051908101604052809291908181526020018280546105879061440b565b80156105d45780601f106105a9576101008083540402835291602001916105d4565b820191906000526020600020905b8154815290600101906020018083116105b757829003601f168201915b505050505081526020016001820180546105ed9061440b565b80601f01602080910402602001604051908101604052809291908181526020018280546106199061440b565b80156106665780601f1061063b57610100808354040283529160200191610666565b820191906000526020600020905b81548152906001019060200180831161064957829003601f168201915b505050505081526020016002820154815260200160038201548152602001600482015481525050905090565b6060600080546106a19061440b565b80601f01602080910402602001604051908101604052809291908181526020018280546106cd9061440b565b801561071a5780601f106106ef5761010080835404028352916020019161071a565b820191906000526020600020905b8154815290600101906020018083116106fd57829003601f168201915b5050505050905090565b600061072f82612217565b61076e576040517f08c379a000000000000000000000000000000000000000000000000000000000815260040161076590613fe6565b60405180910390fd5b6004600083815260200190815260200160002060009054906101000a900473ffffffffffffffffffffffffffffffffffffffff169050919050565b60006107b482610941565b90508073ffffffffffffffffffffffffffffffffffffffff168373ffffffffffffffffffffffffffffffffffffffff161415610825576040517f08c379a000000000000000000000000000000000000000000000000000000000815260040161081c90614026565b60405180910390fd5b8073ffffffffffffffffffffffffffffffffffffffff16610844612283565b73ffffffffffffffffffffffffffffffffffffffff16148061087357506108728161086d612283565b611c6d565b5b6108b2576040517f08c379a00000000000000000000000000000000000000000000000000000000081526004016108a990613f66565b60405180910390fd5b6108bc838361228b565b505050565b6108d26108cc612283565b82612344565b610911576040517f08c379a000000000000000000000000000000000000000000000000000000000815260040161090890614046565b60405180910390fd5b61091c838383612422565b505050565b61093c838383604051806020016040528060008152506111df565b505050565b6000806002600084815260200190815260200160002060009054906101000a900473ffffffffffffffffffffffffffffffffffffffff169050600073ffffffffffffffffffffffffffffffffffffffff168173ffffffffffffffffffffffffffffffffffffffff1614156109ea576040517f08c379a00000000000000000000000000000000000000000000000000000000081526004016109e190613fa6565b60405180910390fd5b80915050919050565b60008073ffffffffffffffffffffffffffffffffffffffff168273ffffffffffffffffffffffffffffffffffffffff161415610a64576040517f08c379a0000000000000000000000000000000000000000000000000000000008152600401610a5b90613f86565b60405180910390fd5b600360008373ffffffffffffffffffffffffffffffffffffffff1673ffffffffffffffffffffffffffffffffffffffff168152602001908152602001600020549050919050565b600e6020528060005260406000206000915090505481565b606060018054610ad29061440b565b80601f0160208091040260200160405190810160405280929190818152602001828054610afe9061440b565b8015610b4b5780601f10610b2057610100808354040283529160200191610b4b565b820191906000526020600020905b815481529060010190602001808311610b2e57829003601f168201915b5050505050905090565b600d602052806000526040600020600091509050806000015490806001018054610b7e9061440b565b80601f0160208091040260200160405190810160405280929190818152602001828054610baa9061440b565b8015610bf75780601f10610bcc57610100808354040283529160200191610bf7565b820191906000526020600020905b815481529060010190602001808311610bda57829003601f168201915b505050505090806002018054610c0c9061440b565b80601f0160208091040260200160405190810160405280929190818152602001828054610c389061440b565b8015610c855780601f10610c5a57610100808354040283529160200191610c85565b820191906000526020600020905b815481529060010190602001808311610c6857829003601f168201915b5050505050908060030154908060040154908060050154905086565b610ca9612283565b73ffffffffffffffffffffffffffffffffffffffff168273ffffffffffffffffffffffffffffffffffffffff161415610d17576040517f08c379a0000000000000000000000000000000000000000000000000000000008152600401610d0e90613f26565b60405180910390fd5b8060056000610d24612283565b73ffffffffffffffffffffffffffffffffffffffff1673ffffffffffffffffffffffffffffffffffffffff16815260200190815260200160002060008473ffffffffffffffffffffffffffffffffffffffff1673ffffffffffffffffffffffffffffffffffffffff16815260200190815260200160002060006101000a81548160ff0219169083151502179055508173ffffffffffffffffffffffffffffffffffffffff16610dd1612283565b73ffffffffffffffffffffffffffffffffffffffff167f17307eab39ab6107e8899845ad3d59bd9653f200f220920489ca2b5937696c3183604051610e169190613ccd565b60405180910390a35050565b6006806000018054610e339061440b565b80601f0160208091040260200160405190810160405280929190818152602001828054610e5f9061440b565b8015610eac5780601f10610e8157610100808354040283529160200191610eac565b820191906000526020600020905b815481529060010190602001808311610e8f57829003601f168201915b505050505090806001018054610ec19061440b565b80601f0160208091040260200160405190810160405280929190818152602001828054610eed9061440b565b8015610f3a5780601f10610f0f57610100808354040283529160200191610f3a565b820191906000526020600020905b815481529060010190602001808311610f1d57829003601f168201915b5050505050908060020154908060030154908060040154905085565b606060006001610f66600b61267e565b610f709190614321565b905060008167ffffffffffffffff811115610fb4577f4e487b7100000000000000000000000000000000000000000000000000000000600052604160045260246000fd5b604051908082528060200260200182016040528015610fed57816020015b610fda613117565b815260200190600190039081610fd25790505b5090506000600190505b6001611003600b61267e565b61100d9190614321565b8110156111d657600d60008281526020019081526020016000206040518060c00160405290816000820154815260200160018201805461104c9061440b565b80601f01602080910402602001604051908101604052809291908181526020018280546110789061440b565b80156110c55780601f1061109a576101008083540402835291602001916110c5565b820191906000526020600020905b8154815290600101906020018083116110a857829003601f168201915b505050505081526020016002820180546110de9061440b565b80601f016020809104026020016040519081016040528092919081815260200182805461110a9061440b565b80156111575780601f1061112c57610100808354040283529160200191611157565b820191906000526020600020905b81548152906001019060200180831161113a57829003601f168201915b5050505050815260200160038201548152602001600482015481526020016005820154815250508282815181106111b7577f4e487b7100000000000000000000000000000000000000000000000000000000600052603260045260246000fd5b60200260200101819052506001816111cf9190614240565b9050610ff7565b50809250505090565b6111f06111ea612283565b83612344565b61122f576040517f08c379a000000000000000000000000000000000000000000000000000000000815260040161122690614046565b60405180910390fd5b61123b8484848461268c565b50505050565b6060600c805480602002602001604051908101604052809291908181526020016000905b828210156113e357838290600052602060002090600602016040518060c0016040529081600082015481526020016001820180546112a29061440b565b80601f01602080910402602001604051908101604052809291908181526020018280546112ce9061440b565b801561131b5780601f106112f05761010080835404028352916020019161131b565b820191906000526020600020905b8154815290600101906020018083116112fe57829003601f168201915b505050505081526020016002820180546113349061440b565b80601f01602080910402602001604051908101604052809291908181526020018280546113609061440b565b80156113ad5780601f10611382576101008083540402835291602001916113ad565b820191906000526020600020905b81548152906001019060200180831161139057829003601f168201915b50505050508152602001600382015481526020016004820154815260200160058201548152505081526020019060010190611265565b50505050905090565b60606000600d60008481526020019081526020016000206040518060c0016040529081600082015481526020016001820180546114289061440b565b80601f01602080910402602001604051908101604052809291908181526020018280546114549061440b565b80156114a15780601f10611476576101008083540402835291602001916114a1565b820191906000526020600020905b81548152906001019060200180831161148457829003601f168201915b505050505081526020016002820180546114ba9061440b565b80601f01602080910402602001604051908101604052809291908181526020018280546114e69061440b565b80156115335780601f1061150857610100808354040283529160200191611533565b820191906000526020600020905b81548152906001019060200180831161151657829003601f168201915b5050505050815260200160038201548152602001600482015481526020016005820154815250509050600061156b82606001516126e8565b9050600061157c83608001516126e8565b9050600061158d8460a001516126e8565b905060006115d385602001516115a2896126e8565b87604001518787876040516020016115bf96959493929190613b46565b604051602081830303815290604052612895565b90506000816040516020016115e89190613beb565b6040516020818303038152906040529050809650505050505050919050565b61160f613117565b6000600e60003373ffffffffffffffffffffffffffffffffffffffff1673ffffffffffffffffffffffffffffffffffffffff16815260200190815260200160002054905060008111156117ce57600d60008281526020019081526020016000206040518060c0016040529081600082015481526020016001820180546116949061440b565b80601f01602080910402602001604051908101604052809291908181526020018280546116c09061440b565b801561170d5780601f106116e25761010080835404028352916020019161170d565b820191906000526020600020905b8154815290600101906020018083116116f057829003601f168201915b505050505081526020016002820180546117269061440b565b80601f01602080910402602001604051908101604052809291908181526020018280546117529061440b565b801561179f5780601f106117745761010080835404028352916020019161179f565b820191906000526020600020905b81548152906001019060200180831161178257829003601f168201915b5050505050815260200160038201548152602001600482015481526020016005820154815250509150506117dc565b6117d6613117565b80925050505b90565b6000600e60003373ffffffffffffffffffffffffffffffffffffffff1673ffffffffffffffffffffffffffffffffffffffff1681526020019081526020016000205490506000600d600083815260200190815260200160002090506118f26040518060600160405280603c8152602001614cc0603c91398260010180546118659061440b565b80601f01602080910402602001604051908101604052809291908181526020018280546118919061440b565b80156118de5780601f106118b3576101008083540402835291602001916118de565b820191906000526020600020905b8154815290600101906020018083116118c157829003601f168201915b505050505083600301548460050154612a53565b6119ca6040518060400160405280601b81526020017f426f73732025732068617320257320485020616e6420257320414400000000008152506006600001805461193b9061440b565b80601f01602080910402602001604051908101604052809291908181526020018280546119679061440b565b80156119b45780601f10611989576101008083540402835291602001916119b4565b820191906000526020600020905b81548152906001019060200180831161199757829003601f168201915b5050505050600660020154600660040154612a53565b6000816003015411611a11576040517f08c379a0000000000000000000000000000000000000000000000000000000008152600401611a0890613e86565b60405180910390fd5b600060066002015411611a59576040517f08c379a0000000000000000000000000000000000000000000000000000000008152600401611a5090613ea6565b60405180910390fd5b80600501546006600201541015611aba57611aa86040518060400160405280600c81526020017f426f737320697320646561640000000000000000000000000000000000000000815250612af5565b60006006600201819055505050611c6b565b806005015460066002016000828254611ad39190614321565b92505081905550611b1e6040518060400160405280601381526020017f426f737320686173202573204850206c65667400000000000000000000000000815250600660020154612b8e565b60066004015481600301541015611b7e57611b6d6040518060400160405280600e81526020017f506c617965722069732064656164000000000000000000000000000000000000815250612af5565b600081600301819055505050611c6b565b600660040154816003016000828254611b979190614321565b92505081905550611be16040518060400160405280601581526020017f506c6179657220686173202573204850206c65667400000000000000000000008152508260030154612b8e565b600081600301541415611c2657604051806060016040528060318152602001614c8f60319139816002019080519060200190611c1e92919061314d565b505050611c6b565b7f24596b044f9390b6f54a6470706bb6795f0a3a4b6d148ca80241481a5f60938c6006600201548260030154604051611c60929190614134565b60405180910390a150505b565b6000600560008473ffffffffffffffffffffffffffffffffffffffff1673ffffffffffffffffffffffffffffffffffffffff16815260200190815260200160002060008373ffffffffffffffffffffffffffffffffffffffff1673ffffffffffffffffffffffffffffffffffffffff16815260200190815260200160002060009054906101000a900460ff16905092915050565b6000611d0d600b61267e565b9050611d193382612c2a565b6040518060c00160405280838152602001600c8481548110611d64577f4e487b7100000000000000000000000000000000000000000000000000000000600052603260045260246000fd5b90600052602060002090600602016001018054611d809061440b565b80601f0160208091040260200160405190810160405280929190818152602001828054611dac9061440b565b8015611df95780601f10611dce57610100808354040283529160200191611df9565b820191906000526020600020905b815481529060010190602001808311611ddc57829003601f168201915b50505050508152602001600c8481548110611e3d577f4e487b7100000000000000000000000000000000000000000000000000000000600052603260045260246000fd5b90600052602060002090600602016002018054611e599061440b565b80601f0160208091040260200160405190810160405280929190818152602001828054611e859061440b565b8015611ed25780601f10611ea757610100808354040283529160200191611ed2565b820191906000526020600020905b815481529060010190602001808311611eb557829003601f168201915b50505050508152602001600c8481548110611f16577f4e487b7100000000000000000000000000000000000000000000000000000000600052603260045260246000fd5b9060005260206000209060060201600301548152602001600c8481548110611f67577f4e487b7100000000000000000000000000000000000000000000000000000000600052603260045260246000fd5b9060005260206000209060060201600301548152602001600c8481548110611fb8577f4e487b7100000000000000000000000000000000000000000000000000000000600052603260045260246000fd5b906000526020600020906006020160050154815250600d600083815260200190815260200160002060008201518160000155602082015181600101908051906020019061200692919061314d565b50604082015181600201908051906020019061202392919061314d565b50606082015181600301556080820151816004015560a082015181600501559050506120686040518060600160405280602e8152602001614c61602e91398284612c48565b80600e60003373ffffffffffffffffffffffffffffffffffffffff1673ffffffffffffffffffffffffffffffffffffffff168152602001908152602001600020819055506120b6600b612197565b7f4bc303fd457a97b4691b9af582ce71868a3d258638c8d4f8c60988a0f0bfb8cd3382846040516120e993929190613c74565b60405180910390a15050565b6121918484848460405160240161210f9493929190613d0a565b6040516020818303038152906040527f8d142cdd000000000000000000000000000000000000000000000000000000007bffffffffffffffffffffffffffffffffffffffffffffffffffffffff19166020820180517bffffffffffffffffffffffffffffffffffffffffffffffffffffffff8381831617835250505050612ce7565b50505050565b6001816000016000828254019250508190555050565b60007f01ffc9a7000000000000000000000000000000000000000000000000000000007bffffffffffffffffffffffffffffffffffffffffffffffffffffffff1916827bffffffffffffffffffffffffffffffffffffffffffffffffffffffff1916149050919050565b60008073ffffffffffffffffffffffffffffffffffffffff166002600084815260200190815260200160002060009054906101000a900473ffffffffffffffffffffffffffffffffffffffff1673ffffffffffffffffffffffffffffffffffffffff1614159050919050565b600033905090565b816004600083815260200190815260200160002060006101000a81548173ffffffffffffffffffffffffffffffffffffffff021916908373ffffffffffffffffffffffffffffffffffffffff160217905550808273ffffffffffffffffffffffffffffffffffffffff166122fe83610941565b73ffffffffffffffffffffffffffffffffffffffff167f8c5be1e5ebec7d5bd14f71427d1e84f3dd0314c0f7b2291e5b200ac8c7c3b92560405160405180910390a45050565b600061234f82612217565b61238e576040517f08c379a000000000000000000000000000000000000000000000000000000000815260040161238590613f46565b60405180910390fd5b600061239983610941565b90508073ffffffffffffffffffffffffffffffffffffffff168473ffffffffffffffffffffffffffffffffffffffff16148061240857508373ffffffffffffffffffffffffffffffffffffffff166123f084610724565b73ffffffffffffffffffffffffffffffffffffffff16145b8061241957506124188185611c6d565b5b91505092915050565b8273ffffffffffffffffffffffffffffffffffffffff1661244282610941565b73ffffffffffffffffffffffffffffffffffffffff1614612498576040517f08c379a000000000000000000000000000000000000000000000000000000000815260040161248f90614006565b60405180910390fd5b600073ffffffffffffffffffffffffffffffffffffffff168273ffffffffffffffffffffffffffffffffffffffff161415612508576040517f08c379a00000000000000000000000000000000000000000000000000000000081526004016124ff90613f06565b60405180910390fd5b612513838383612d10565b61251e60008261228b565b6001600360008573ffffffffffffffffffffffffffffffffffffffff1673ffffffffffffffffffffffffffffffffffffffff168152602001908152602001600020600082825461256e9190614321565b925050819055506001600360008473ffffffffffffffffffffffffffffffffffffffff1673ffffffffffffffffffffffffffffffffffffffff16815260200190815260200160002060008282546125c59190614240565b92505081905550816002600083815260200190815260200160002060006101000a81548173ffffffffffffffffffffffffffffffffffffffff021916908373ffffffffffffffffffffffffffffffffffffffff160217905550808273ffffffffffffffffffffffffffffffffffffffff168473ffffffffffffffffffffffffffffffffffffffff167fddf252ad1be2c89b69c2b068fc378daa952ba7f163c4a11628f55a4df523b3ef60405160405180910390a4505050565b600081600001549050919050565b612697848484612422565b6126a384848484612d15565b6126e2576040517f08c379a00000000000000000000000000000000000000000000000000000000081526004016126d990613ec6565b60405180910390fd5b50505050565b60606000821415612730576040518060400160405280600181526020017f30000000000000000000000000000000000000000000000000000000000000008152509050612890565b600082905060005b6000821461276257808061274b9061446e565b915050600a8261275b9190614296565b9150612738565b60008167ffffffffffffffff8111156127a4577f4e487b7100000000000000000000000000000000000000000000000000000000600052604160045260246000fd5b6040519080825280601f01601f1916602001820160405280156127d65781602001600182028036833780820191505090505b5090505b60008514612889576001826127ef9190614321565b9150600a856127fe91906144b7565b603061280a9190614240565b60f81b818381518110612846577f4e487b7100000000000000000000000000000000000000000000000000000000600052603260045260246000fd5b60200101907effffffffffffffffffffffffffffffffffffffffffffffffffffffffffffff1916908160001a905350600a856128829190614296565b94506127da565b8093505050505b919050565b606060008251905060008114156128be5760405180602001604052806000815250915050612a4e565b600060036002836128cf9190614240565b6128d99190614296565b60046128e591906142c7565b905060006020826128f69190614240565b67ffffffffffffffff811115612935577f4e487b7100000000000000000000000000000000000000000000000000000000600052604160045260246000fd5b6040519080825280601f01601f1916602001820160405280156129675781602001600182028036833780820191505090505b5090506000604051806060016040528060408152602001614c21604091399050600181016020830160005b86811015612a0b5760038101905062ffffff818a015116603f8160121c168401518060081b905060ff603f83600c1c1686015116810190508060081b905060ff603f8360061c1686015116810190508060081b905060ff603f831686015116810190508060e01b90508084526004840193505050612992565b506003860660018114612a255760028114612a3557612a40565b613d3d60f01b6002830352612a40565b603d60f81b60018303525b508484525050819450505050505b919050565b612aef84848484604051602401612a6d9493929190613d64565b6040516020818303038152906040527fd5cf17d0000000000000000000000000000000000000000000000000000000007bffffffffffffffffffffffffffffffffffffffffffffffffffffffff19166020820180517bffffffffffffffffffffffffffffffffffffffffffffffffffffffff8381831617835250505050612ce7565b50505050565b612b8b81604051602401612b099190613ce8565b6040516020818303038152906040527f41304fac000000000000000000000000000000000000000000000000000000007bffffffffffffffffffffffffffffffffffffffffffffffffffffffff19166020820180517bffffffffffffffffffffffffffffffffffffffffffffffffffffffff8381831617835250505050612ce7565b50565b612c268282604051602401612ba4929190613e18565b6040516020818303038152906040527f9710a9d0000000000000000000000000000000000000000000000000000000007bffffffffffffffffffffffffffffffffffffffffffffffffffffffff19166020820180517bffffffffffffffffffffffffffffffffffffffffffffffffffffffff8381831617835250505050612ce7565b5050565b612c44828260405180602001604052806000815250612eac565b5050565b612ce2838383604051602401612c6093929190613e48565b6040516020818303038152906040527f969cdd03000000000000000000000000000000000000000000000000000000007bffffffffffffffffffffffffffffffffffffffffffffffffffffffff19166020820180517bffffffffffffffffffffffffffffffffffffffffffffffffffffffff8381831617835250505050612ce7565b505050565b60008151905060006a636f6e736f6c652e6c6f679050602083016000808483855afa5050505050565b505050565b6000612d368473ffffffffffffffffffffffffffffffffffffffff16612f07565b15612e9f578373ffffffffffffffffffffffffffffffffffffffff1663150b7a02612d5f612283565b8786866040518563ffffffff1660e01b8152600401612d819493929190613c28565b602060405180830381600087803b158015612d9b57600080fd5b505af1925050508015612dcc57506040513d601f19601f82011682018060405250810190612dc99190613491565b60015b612e4f573d8060008114612dfc576040519150601f19603f3d011682016040523d82523d6000602084013e612e01565b606091505b50600081511415612e47576040517f08c379a0000000000000000000000000000000000000000000000000000000008152600401612e3e90613ec6565b60405180910390fd5b805181602001fd5b63150b7a0260e01b7bffffffffffffffffffffffffffffffffffffffffffffffffffffffff1916817bffffffffffffffffffffffffffffffffffffffffffffffffffffffff191614915050612ea4565b600190505b949350505050565b612eb68383612f1a565b612ec36000848484612d15565b612f02576040517f08c379a0000000000000000000000000000000000000000000000000000000008152600401612ef990613ec6565b60405180910390fd5b505050565b600080823b905060008111915050919050565b600073ffffffffffffffffffffffffffffffffffffffff168273ffffffffffffffffffffffffffffffffffffffff161415612f8a576040517f08c379a0000000000000000000000000000000000000000000000000000000008152600401612f8190613fc6565b60405180910390fd5b612f9381612217565b15612fd3576040517f08c379a0000000000000000000000000000000000000000000000000000000008152600401612fca90613ee6565b60405180910390fd5b612fdf60008383612d10565b6001600360008473ffffffffffffffffffffffffffffffffffffffff1673ffffffffffffffffffffffffffffffffffffffff168152602001908152602001600020600082825461302f9190614240565b92505081905550816002600083815260200190815260200160002060006101000a81548173ffffffffffffffffffffffffffffffffffffffff021916908373ffffffffffffffffffffffffffffffffffffffff160217905550808273ffffffffffffffffffffffffffffffffffffffff16600073ffffffffffffffffffffffffffffffffffffffff167fddf252ad1be2c89b69c2b068fc378daa952ba7f163c4a11628f55a4df523b3ef60405160405180910390a45050565b6040518060a0016040528060608152602001606081526020016000815260200160008152602001600081525090565b6040518060c001604052806000815260200160608152602001606081526020016000815260200160008152602001600081525090565b8280546131599061440b565b90600052602060002090601f01602090048101928261317b57600085556131c2565b82601f1061319457805160ff19168380011785556131c2565b828001600101855582156131c2579182015b828111156131c15782518255916020019190600101906131a6565b5b5090506131cf91906131d3565b5090565b5b808211156131ec5760008160009055506001016131d4565b5090565b60006132036131fe84614182565b61415d565b90508281526020810184848401111561321b57600080fd5b6132268482856143c9565b509392505050565b60008135905061323d81614bc4565b92915050565b60008135905061325281614bdb565b92915050565b60008135905061326781614bf2565b92915050565b60008151905061327c81614bf2565b92915050565b600082601f83011261329357600080fd5b81356132a38482602086016131f0565b91505092915050565b6000813590506132bb81614c09565b92915050565b6000602082840312156132d357600080fd5b60006132e18482850161322e565b91505092915050565b600080604083850312156132fd57600080fd5b600061330b8582860161322e565b925050602061331c8582860161322e565b9150509250929050565b60008060006060848603121561333b57600080fd5b60006133498682870161322e565b935050602061335a8682870161322e565b925050604061336b868287016132ac565b9150509250925092565b6000806000806080858703121561338b57600080fd5b60006133998782880161322e565b94505060206133aa8782880161322e565b93505060406133bb878288016132ac565b925050606085013567ffffffffffffffff8111156133d857600080fd5b6133e487828801613282565b91505092959194509250565b6000806040838503121561340357600080fd5b60006134118582860161322e565b925050602061342285828601613243565b9150509250929050565b6000806040838503121561343f57600080fd5b600061344d8582860161322e565b925050602061345e858286016132ac565b9150509250929050565b60006020828403121561347a57600080fd5b600061348884828501613258565b91505092915050565b6000602082840312156134a357600080fd5b60006134b18482850161326d565b91505092915050565b6000602082840312156134cc57600080fd5b60006134da848285016132ac565b91505092915050565b60006134ef8383613a08565b905092915050565b61350081614355565b82525050565b6000613511826141c3565b61351b81856141f1565b93508360208202850161352d856141b3565b8060005b85811015613569578484038952815161354a85826134e3565b9450613555836141e4565b925060208a01995050600181019050613531565b50829750879550505050505092915050565b61358481614367565b82525050565b6000613595826141ce565b61359f8185614202565b93506135af8185602086016143d8565b6135b8816145a4565b840191505092915050565b60006135ce826141d9565b6135d88185614213565b93506135e88185602086016143d8565b6135f1816145a4565b840191505092915050565b6000613607826141d9565b6136118185614224565b93506136218185602086016143d8565b61362a816145a4565b840191505092915050565b6000613640826141d9565b61364a8185614235565b935061365a8185602086016143d8565b80840191505092915050565b6000613673600b83614235565b915061367e826145b5565b600b82019050919050565b6000613696602c83614224565b91506136a1826145de565b604082019050919050565b60006136b9602c83614224565b91506136c48261462d565b604082019050919050565b60006136dc603283614224565b91506136e78261467c565b604082019050919050565b60006136ff601c83614224565b915061370a826146cb565b602082019050919050565b6000613722600e83614235565b915061372d826146f4565b600e82019050919050565b6000613745602483614224565b91506137508261471d565b604082019050919050565b6000613768601983614224565b91506137738261476c565b602082019050919050565b600061378b602c83614224565b915061379682614795565b604082019050919050565b60006137ae603883614224565b91506137b9826147e4565b604082019050919050565b60006137d1602a83614224565b91506137dc82614833565b604082019050919050565b60006137f4602983614224565b91506137ff82614882565b604082019050919050565b6000613817600483614235565b9150613822826148d1565b600482019050919050565b600061383a602083614224565b9150613845826148fa565b602082019050919050565b600061385d602c83614224565b915061386882614923565b604082019050919050565b6000613880602983614224565b915061388b82614972565b604082019050919050565b60006138a3600a83614235565b91506138ae826149c1565b600a82019050919050565b60006138c6602183614224565b91506138d1826149ea565b604082019050919050565b60006138e9601d83614235565b91506138f482614a39565b601d82019050919050565b600061390c603183614224565b915061391782614a62565b604082019050919050565b600061392f605a83614235565b915061393a82614ab1565b605a82019050919050565b6000613952603d83614235565b915061395d82614b26565b603d82019050919050565b6000613975602d83614235565b915061398082614b75565b602d82019050919050565b600060a08301600083015184820360008601526139a882826135c3565b915050602083015184820360208601526139c282826135c3565b91505060408301516139d76040860182613b28565b5060608301516139ea6060860182613b28565b5060808301516139fd6080860182613b28565b508091505092915050565b600060c083016000830151613a206000860182613b28565b5060208301518482036020860152613a3882826135c3565b91505060408301518482036040860152613a5282826135c3565b9150506060830151613a676060860182613b28565b506080830151613a7a6080860182613b28565b5060a0830151613a8d60a0860182613b28565b508091505092915050565b600060c083016000830151613ab06000860182613b28565b5060208301518482036020860152613ac882826135c3565b91505060408301518482036040860152613ae282826135c3565b9150506060830151613af76060860182613b28565b506080830151613b0a6080860182613b28565b5060a0830151613b1d60a0860182613b28565b508091505092915050565b613b31816143bf565b82525050565b613b40816143bf565b82525050565b6000613b5182613896565b9150613b5d8289613635565b9150613b6882613666565b9150613b748288613635565b9150613b7f82613922565b9150613b8b8287613635565b9150613b9682613945565b9150613ba28286613635565b9150613bad82613715565b9150613bb98285613635565b9150613bc482613968565b9150613bd08284613635565b9150613bdb8261380a565b9150819050979650505050505050565b6000613bf6826138dc565b9150613c028284613635565b915081905092915050565b6000602082019050613c2260008301846134f7565b92915050565b6000608082019050613c3d60008301876134f7565b613c4a60208301866134f7565b613c576040830185613b37565b8181036060830152613c69818461358a565b905095945050505050565b6000606082019050613c8960008301866134f7565b613c966020830185613b37565b613ca36040830184613b37565b949350505050565b60006020820190508181036000830152613cc58184613506565b905092915050565b6000602082019050613ce2600083018461357b565b92915050565b60006020820190508181036000830152613d0281846135fc565b905092915050565b60006080820190508181036000830152613d2481876135fc565b90508181036020830152613d3881866135fc565b9050613d476040830185613b37565b8181036060830152613d5981846135fc565b905095945050505050565b60006080820190508181036000830152613d7e81876135fc565b90508181036020830152613d9281866135fc565b9050613da16040830185613b37565b613dae6060830184613b37565b95945050505050565b600060a0820190508181036000830152613dd181886135fc565b90508181036020830152613de581876135fc565b9050613df46040830186613b37565b613e016060830185613b37565b613e0e6080830184613b37565b9695505050505050565b60006040820190508181036000830152613e3281856135fc565b9050613e416020830184613b37565b9392505050565b60006060820190508181036000830152613e6281866135fc565b9050613e716020830185613b37565b613e7e6040830184613b37565b949350505050565b60006020820190508181036000830152613e9f81613689565b9050919050565b60006020820190508181036000830152613ebf816136ac565b9050919050565b60006020820190508181036000830152613edf816136cf565b9050919050565b60006020820190508181036000830152613eff816136f2565b9050919050565b60006020820190508181036000830152613f1f81613738565b9050919050565b60006020820190508181036000830152613f3f8161375b565b9050919050565b60006020820190508181036000830152613f5f8161377e565b9050919050565b60006020820190508181036000830152613f7f816137a1565b9050919050565b60006020820190508181036000830152613f9f816137c4565b9050919050565b60006020820190508181036000830152613fbf816137e7565b9050919050565b60006020820190508181036000830152613fdf8161382d565b9050919050565b60006020820190508181036000830152613fff81613850565b9050919050565b6000602082019050818103600083015261401f81613873565b9050919050565b6000602082019050818103600083015261403f816138b9565b9050919050565b6000602082019050818103600083015261405f816138ff565b9050919050565b60006020820190508181036000830152614080818461398b565b905092915050565b600060208201905081810360008301526140a28184613a98565b905092915050565b60006020820190506140bf6000830184613b37565b92915050565b600060c0820190506140da6000830189613b37565b81810360208301526140ec81886135fc565b9050818103604083015261410081876135fc565b905061410f6060830186613b37565b61411c6080830185613b37565b61412960a0830184613b37565b979650505050505050565b60006040820190506141496000830185613b37565b6141566020830184613b37565b9392505050565b6000614167614178565b9050614173828261443d565b919050565b6000604051905090565b600067ffffffffffffffff82111561419d5761419c614575565b5b6141a6826145a4565b9050602081019050919050565b6000819050602082019050919050565b600081519050919050565b600081519050919050565b600081519050919050565b6000602082019050919050565b600082825260208201905092915050565b600082825260208201905092915050565b600082825260208201905092915050565b600082825260208201905092915050565b600081905092915050565b600061424b826143bf565b9150614256836143bf565b9250827fffffffffffffffffffffffffffffffffffffffffffffffffffffffffffffffff0382111561428b5761428a6144e8565b5b828201905092915050565b60006142a1826143bf565b91506142ac836143bf565b9250826142bc576142bb614517565b5b828204905092915050565b60006142d2826143bf565b91506142dd836143bf565b9250817fffffffffffffffffffffffffffffffffffffffffffffffffffffffffffffffff0483118215151615614316576143156144e8565b5b828202905092915050565b600061432c826143bf565b9150614337836143bf565b92508282101561434a576143496144e8565b5b828203905092915050565b60006143608261439f565b9050919050565b60008115159050919050565b60007fffffffff0000000000000000000000000000000000000000000000000000000082169050919050565b600073ffffffffffffffffffffffffffffffffffffffff82169050919050565b6000819050919050565b82818337600083830152505050565b60005b838110156143f65780820151818401526020810190506143db565b83811115614405576000848401525b50505050565b6000600282049050600182168061442357607f821691505b6020821081141561443757614436614546565b5b50919050565b614446826145a4565b810181811067ffffffffffffffff8211171561446557614464614575565b5b80604052505050565b6000614479826143bf565b91507fffffffffffffffffffffffffffffffffffffffffffffffffffffffffffffffff8214156144ac576144ab6144e8565b5b600182019050919050565b60006144c2826143bf565b91506144cd836143bf565b9250826144dd576144dc614517565b5b828206905092915050565b7f4e487b7100000000000000000000000000000000000000000000000000000000600052601160045260246000fd5b7f4e487b7100000000000000000000000000000000000000000000000000000000600052601260045260246000fd5b7f4e487b7100000000000000000000000000000000000000000000000000000000600052602260045260246000fd5b7f4e487b7100000000000000000000000000000000000000000000000000000000600052604160045260246000fd5b6000601f19601f8301169050919050565b7f202d2d204e465420233a20000000000000000000000000000000000000000000600082015250565b7f4572726f723a20636861726163746572206d757374206861766520485020746f60008201527f2061747461636b20626f73730000000000000000000000000000000000000000602082015250565b7f4572726f723a20626f7373206d757374206861766520485020746f206174746160008201527f636b206368617261637465720000000000000000000000000000000000000000602082015250565b7f4552433732313a207472616e7366657220746f206e6f6e20455243373231526560008201527f63656976657220696d706c656d656e7465720000000000000000000000000000602082015250565b7f4552433732313a20746f6b656e20616c7265616479206d696e74656400000000600082015250565b7f2c20226d61785f76616c7565223a000000000000000000000000000000000000600082015250565b7f4552433732313a207472616e7366657220746f20746865207a65726f2061646460008201527f7265737300000000000000000000000000000000000000000000000000000000602082015250565b7f4552433732313a20617070726f766520746f2063616c6c657200000000000000600082015250565b7f4552433732313a206f70657261746f7220717565727920666f72206e6f6e657860008201527f697374656e7420746f6b656e0000000000000000000000000000000000000000602082015250565b7f4552433732313a20617070726f76652063616c6c6572206973206e6f74206f7760008201527f6e6572206e6f7220617070726f76656420666f7220616c6c0000000000000000602082015250565b7f4552433732313a2062616c616e636520717565727920666f7220746865207a6560008201527f726f206164647265737300000000000000000000000000000000000000000000602082015250565b7f4552433732313a206f776e657220717565727920666f72206e6f6e657869737460008201527f656e7420746f6b656e0000000000000000000000000000000000000000000000602082015250565b7f7d205d7d00000000000000000000000000000000000000000000000000000000600082015250565b7f4552433732313a206d696e7420746f20746865207a65726f2061646472657373600082015250565b7f4552433732313a20617070726f76656420717565727920666f72206e6f6e657860008201527f697374656e7420746f6b656e0000000000000000000000000000000000000000602082015250565b7f4552433732313a207472616e73666572206f6620746f6b656e2074686174206960008201527f73206e6f74206f776e0000000000000000000000000000000000000000000000602082015250565b7f7b226e616d65223a202200000000000000000000000000000000000000000000600082015250565b7f4552433732313a20617070726f76616c20746f2063757272656e74206f776e6560008201527f7200000000000000000000000000000000000000000000000000000000000000602082015250565b7f646174613a6170706c69636174696f6e2f6a736f6e3b6261736536342c000000600082015250565b7f4552433732313a207472616e736665722063616c6c6572206973206e6f74206f60008201527f776e6572206e6f7220617070726f766564000000000000000000000000000000602082015250565b7f222c20226465736372697074696f6e223a20225468697320697320616e204e4660008201527f542074686174206c6574732070656f706c6520706c617920696e20746865206760208201527f616d652044414f2050554e4b5a222c2022696d616765223a2022000000000000604082015250565b7f222c202261747472696275746573223a205b207b202274726169745f7479706560008201527f223a20224865616c746820506f696e7473222c202276616c7565223a20000000602082015250565b7f7d2c207b202274726169745f74797065223a202241747461636b2044616d616760008201527f65222c202276616c7565223a2000000000000000000000000000000000000000602082015250565b614bcd81614355565b8114614bd857600080fd5b50565b614be481614367565b8114614bef57600080fd5b50565b614bfb81614373565b8114614c0657600080fd5b50565b614c12816143bf565b8114614c1d57600080fd5b5056fe4142434445464748494a4b4c4d4e4f505152535455565758595a6162636465666768696a6b6c6d6e6f707172737475767778797a303132333435363738392b2f4d696e746564204e465420772f20746f6b656e496420257320616e6420636861726163746572496e646578202573687474703a2f2f636c6970617274732e636f2f636c6970617274732f72546a2f4b47612f72546a4b47616a65632e6769660a506c6179657220772f206368617261637465722025732061626f757420746f2061747461636b2e2048617320257320485020616e64202573204144a2646970667358221220d618eaa3b71c92d972642891e8fc4aec1dbf793a1002c588e05c3db9a7cfea9764736f6c63430008040033446f6e6520696e697469616c697a696e6720257320772f2048502025732c20696d67202573446f6e6520696e697469616c697a696e6720626f737320257320772f2048502025732c20696d67202573",
  "linkReferences": {},
  "deployedLinkReferences": {}
}